{
  "contractName": "ProductContract",
  "abi": [
    {
      "anonymous": false,
      "inputs": [
        {
          "indexed": true,
          "internalType": "string",
          "name": "id",
          "type": "string"
        },
        {
          "indexed": true,
          "internalType": "address",
          "name": "newOwner",
          "type": "address"
        }
      ],
      "name": "ownerChanged",
      "type": "event"
    },
    {
      "anonymous": false,
      "inputs": [
        {
          "indexed": true,
          "internalType": "string",
          "name": "id",
          "type": "string"
        },
        {
          "indexed": true,
          "internalType": "string",
          "name": "name",
          "type": "string"
        },
        {
          "indexed": true,
          "internalType": "string",
          "name": "colour",
          "type": "string"
        }
      ],
      "name": "productCreation",
      "type": "event"
    },
    {
      "inputs": [
        {
          "internalType": "string",
          "name": "id",
          "type": "string"
        },
        {
          "internalType": "string",
          "name": "name",
          "type": "string"
        },
        {
          "internalType": "string",
          "name": "colour",
          "type": "string"
        }
      ],
      "name": "addProduct",
      "outputs": [],
      "stateMutability": "nonpayable",
      "type": "function"
    },
    {
      "inputs": [
        {
          "internalType": "string",
          "name": "id",
          "type": "string"
        },
        {
          "internalType": "address",
          "name": "to",
          "type": "address"
        }
      ],
      "name": "changeProductOwner",
      "outputs": [],
      "stateMutability": "nonpayable",
      "type": "function"
    },
    {
      "inputs": [
        {
          "internalType": "string",
          "name": "productId",
          "type": "string"
        }
      ],
      "name": "getProductById",
      "outputs": [
        {
          "internalType": "address",
          "name": "Owner",
          "type": "address"
        },
        {
          "internalType": "string",
          "name": "Id",
          "type": "string"
        },
        {
          "internalType": "string",
          "name": "Name",
          "type": "string"
        },
        {
          "internalType": "string",
          "name": "Colour",
          "type": "string"
        },
        {
          "internalType": "uint256",
          "name": "Status",
          "type": "uint256"
        }
      ],
      "stateMutability": "view",
      "type": "function",
      "constant": true
    },
    {
      "inputs": [
        {
          "internalType": "string",
          "name": "productId",
          "type": "string"
        }
      ],
      "name": "getProductById1",
      "outputs": [
        {
          "components": [
            {
              "internalType": "address",
              "name": "Owner",
              "type": "address"
            },
            {
              "internalType": "string",
              "name": "Id",
              "type": "string"
            },
            {
              "internalType": "string",
              "name": "Name",
              "type": "string"
            },
            {
              "internalType": "string",
              "name": "Colour",
              "type": "string"
            },
            {
              "internalType": "uint256",
              "name": "Status",
              "type": "uint256"
            }
          ],
          "internalType": "struct ProductContract.Product",
          "name": "",
          "type": "tuple"
        }
      ],
      "stateMutability": "view",
      "type": "function",
      "constant": true
    },
    {
      "inputs": [],
      "name": "getProductCounts",
      "outputs": [
        {
          "internalType": "uint256",
          "name": "",
          "type": "uint256"
        }
      ],
      "stateMutability": "view",
      "type": "function",
      "constant": true
    }
  ],
  "bytecode": "0x608060405234801561001057600080fd5b5061126a806100206000396000f3fe608060405234801561001057600080fd5b50600436106100575760003560e01c80630755742c1461005c5780630e34b00e146100785780632352d4aa14610094578063cbdcaf47146100c8578063d35e5d95146100f8575b600080fd5b61007660048036038101906100719190610b13565b610116565b005b610092600480360381019061008d9190610b6f565b610282565b005b6100ae60048036038101906100a99190610c16565b61043e565b6040516100bf959493929190610d06565b60405180910390f35b6100e260048036038101906100dd9190610c16565b6106b6565b6040516100ef9190610e5a565b60405180910390f35b61010061090a565b60405161010d9190610e7c565b60405180910390f35b6001826040516101269190610ed3565b908152602001604051809103902060000160009054906101000a900473ffffffffffffffffffffffffffffffffffffffff1673ffffffffffffffffffffffffffffffffffffffff163373ffffffffffffffffffffffffffffffffffffffff16146101c5576040517f08c379a00000000000000000000000000000000000000000000000000000000081526004016101bc90610f36565b60405180910390fd5b806001836040516101d69190610ed3565b908152602001604051809103902060000160006101000a81548173ffffffffffffffffffffffffffffffffffffffff021916908373ffffffffffffffffffffffffffffffffffffffff1602179055508073ffffffffffffffffffffffffffffffffffffffff168260405161024a9190610ed3565b60405180910390207fae1a03e1d76b8d1a62be7378518c0f5c9c0dd46555ed1643ffec9a06fb39808960405160405180910390a35050565b826001846040516102939190610ed3565b908152602001604051809103902060010190816102b09190611162565b50816001846040516102c29190610ed3565b908152602001604051809103902060020190816102df9190611162565b50806001846040516102f19190610ed3565b9081526020016040518091039020600301908161030e9190611162565b50336001846040516103209190610ed3565b908152602001604051809103902060000160006101000a81548173ffffffffffffffffffffffffffffffffffffffff021916908373ffffffffffffffffffffffffffffffffffffffff16021790555060006001846040516103819190610ed3565b9081526020016040518091039020600401819055506000839080600181540180825580915050600190039060005260206000200160009091909190915090816103ca9190611162565b50806040516103d99190610ed3565b6040518091039020826040516103ef9190610ed3565b6040518091039020846040516104059190610ed3565b60405180910390207fd37dd0ed6fb9ad93b91e71c304841033f3af3f9cb05dfdd354d91b1383d93cef60405160405180910390a4505050565b600060608060606000806001876040516104589190610ed3565b90815260200160405180910390206040518060a00160405290816000820160009054906101000a900473ffffffffffffffffffffffffffffffffffffffff1673ffffffffffffffffffffffffffffffffffffffff1673ffffffffffffffffffffffffffffffffffffffff1681526020016001820180546104d790610f85565b80601f016020809104026020016040519081016040528092919081815260200182805461050390610f85565b80156105505780601f1061052557610100808354040283529160200191610550565b820191906000526020600020905b81548152906001019060200180831161053357829003601f168201915b5050505050815260200160028201805461056990610f85565b80601f016020809104026020016040519081016040528092919081815260200182805461059590610f85565b80156105e25780601f106105b7576101008083540402835291602001916105e2565b820191906000526020600020905b8154815290600101906020018083116105c557829003601f168201915b505050505081526020016003820180546105fb90610f85565b80601f016020809104026020016040519081016040528092919081815260200182805461062790610f85565b80156106745780601f1061064957610100808354040283529160200191610674565b820191906000526020600020905b81548152906001019060200180831161065757829003601f168201915b50505050508152602001600482015481525050905080600001518160200151826040015183606001518460800151955095509550955095505091939590929450565b6106be610916565b60006001836040516106d09190610ed3565b90815260200160405180910390206040518060a00160405290816000820160009054906101000a900473ffffffffffffffffffffffffffffffffffffffff1673ffffffffffffffffffffffffffffffffffffffff1673ffffffffffffffffffffffffffffffffffffffff16815260200160018201805461074f90610f85565b80601f016020809104026020016040519081016040528092919081815260200182805461077b90610f85565b80156107c85780601f1061079d576101008083540402835291602001916107c8565b820191906000526020600020905b8154815290600101906020018083116107ab57829003601f168201915b505050505081526020016002820180546107e190610f85565b80601f016020809104026020016040519081016040528092919081815260200182805461080d90610f85565b801561085a5780601f1061082f5761010080835404028352916020019161085a565b820191906000526020600020905b81548152906001019060200180831161083d57829003601f168201915b5050505050815260200160038201805461087390610f85565b80601f016020809104026020016040519081016040528092919081815260200182805461089f90610f85565b80156108ec5780601f106108c1576101008083540402835291602001916108ec565b820191906000526020600020905b8154815290600101906020018083116108cf57829003601f168201915b50505050508152602001600482015481525050905080915050919050565b60008080549050905090565b6040518060a00160405280600073ffffffffffffffffffffffffffffffffffffffff168152602001606081526020016060815260200160608152602001600081525090565b6000604051905090565b600080fd5b600080fd5b600080fd5b600080fd5b6000601f19601f8301169050919050565b7f4e487b7100000000000000000000000000000000000000000000000000000000600052604160045260246000fd5b6109c282610979565b810181811067ffffffffffffffff821117156109e1576109e061098a565b5b80604052505050565b60006109f461095b565b9050610a0082826109b9565b919050565b600067ffffffffffffffff821115610a2057610a1f61098a565b5b610a2982610979565b9050602081019050919050565b82818337600083830152505050565b6000610a58610a5384610a05565b6109ea565b905082815260208101848484011115610a7457610a73610974565b5b610a7f848285610a36565b509392505050565b600082601f830112610a9c57610a9b61096f565b5b8135610aac848260208601610a45565b91505092915050565b600073ffffffffffffffffffffffffffffffffffffffff82169050919050565b6000610ae082610ab5565b9050919050565b610af081610ad5565b8114610afb57600080fd5b50565b600081359050610b0d81610ae7565b92915050565b60008060408385031215610b2a57610b29610965565b5b600083013567ffffffffffffffff811115610b4857610b4761096a565b5b610b5485828601610a87565b9250506020610b6585828601610afe565b9150509250929050565b600080600060608486031215610b8857610b87610965565b5b600084013567ffffffffffffffff811115610ba657610ba561096a565b5b610bb286828701610a87565b935050602084013567ffffffffffffffff811115610bd357610bd261096a565b5b610bdf86828701610a87565b925050604084013567ffffffffffffffff811115610c0057610bff61096a565b5b610c0c86828701610a87565b9150509250925092565b600060208284031215610c2c57610c2b610965565b5b600082013567ffffffffffffffff811115610c4a57610c4961096a565b5b610c5684828501610a87565b91505092915050565b610c6881610ad5565b82525050565b600081519050919050565b600082825260208201905092915050565b60005b83811015610ca8578082015181840152602081019050610c8d565b60008484015250505050565b6000610cbf82610c6e565b610cc98185610c79565b9350610cd9818560208601610c8a565b610ce281610979565b840191505092915050565b6000819050919050565b610d0081610ced565b82525050565b600060a082019050610d1b6000830188610c5f565b8181036020830152610d2d8187610cb4565b90508181036040830152610d418186610cb4565b90508181036060830152610d558185610cb4565b9050610d646080830184610cf7565b9695505050505050565b610d7781610ad5565b82525050565b600082825260208201905092915050565b6000610d9982610c6e565b610da38185610d7d565b9350610db3818560208601610c8a565b610dbc81610979565b840191505092915050565b610dd081610ced565b82525050565b600060a083016000830151610dee6000860182610d6e565b5060208301518482036020860152610e068282610d8e565b91505060408301518482036040860152610e208282610d8e565b91505060608301518482036060860152610e3a8282610d8e565b9150506080830151610e4f6080860182610dc7565b508091505092915050565b60006020820190508181036000830152610e748184610dd6565b905092915050565b6000602082019050610e916000830184610cf7565b92915050565b600081905092915050565b6000610ead82610c6e565b610eb78185610e97565b9350610ec7818560208601610c8a565b80840191505092915050565b6000610edf8284610ea2565b915081905092915050565b7f4f6e6c79206f776e65722063616e206368616e67652074686520737461747573600082015250565b6000610f20602083610c79565b9150610f2b82610eea565b602082019050919050565b60006020820190508181036000830152610f4f81610f13565b9050919050565b7f4e487b7100000000000000000000000000000000000000000000000000000000600052602260045260246000fd5b60006002820490506001821680610f9d57607f821691505b602082108103610fb057610faf610f56565b5b50919050565b60008190508160005260206000209050919050565b60006020601f8301049050919050565b600082821b905092915050565b6000600883026110187fffffffffffffffffffffffffffffffffffffffffffffffffffffffffffffffff82610fdb565b6110228683610fdb565b95508019841693508086168417925050509392505050565b6000819050919050565b600061105f61105a61105584610ced565b61103a565b610ced565b9050919050565b6000819050919050565b61107983611044565b61108d61108582611066565b848454610fe8565b825550505050565b600090565b6110a2611095565b6110ad818484611070565b505050565b5b818110156110d1576110c660008261109a565b6001810190506110b3565b5050565b601f821115611116576110e781610fb6565b6110f084610fcb565b810160208510156110ff578190505b61111361110b85610fcb565b8301826110b2565b50505b505050565b600082821c905092915050565b60006111396000198460080261111b565b1980831691505092915050565b60006111528383611128565b9150826002028217905092915050565b61116b82610c6e565b67ffffffffffffffff8111156111845761118361098a565b5b61118e8254610f85565b6111998282856110d5565b600060209050601f8311600181146111cc57600084156111ba578287015190505b6111c48582611146565b86555061122c565b601f1984166111da86610fb6565b60005b82811015611202578489015182556001820191506020850194506020810190506111dd565b8683101561121f578489015161121b601f891682611128565b8355505b6001600288020188555050505b50505050505056fea2646970667358221220aadb279aef8b7feabab9b78516e64ed13c04024cf6cabd999d72ef9fc19a01a264736f6c63430008130033",
  "immutableReferences": {},
  "source": "// SPDX-License-Identifier: UNLICENSED\npragma solidity ^0.8.19;\n\ncontract ProductContract {\n    struct Product {\n        address Owner;\n        string Id;\n        string Name;\n        string Colour;\n        uint Status;\n    }\n\n    string[] ProductIdList;\n    mapping(string => Product) products;\n\n    event productCreation(string indexed id,string indexed name,string indexed colour);\n    event ownerChanged(string indexed id, address indexed newOwner);\n\n    function addProduct(string memory id,string memory name,string memory colour) public {\n        products[id].Id = id;\n        products[id].Name = name;\n        products[id].Colour = colour;\n        products[id].Owner = msg.sender;\n        products[id].Status = 0;\n\n        ProductIdList.push(id);\n        emit productCreation(id, name, colour);\n    }\n\n    function changeProductOwner(string memory id, address to) public {\n        require(\n            msg.sender == products[id].Owner,\n            \"Only owner can change the status\"\n        );\n        products[id].Owner = to;\n        emit ownerChanged(id, to);\n    }\n\n    function getProductById(string memory productId)public view returns (address Owner,string memory Id,string memory Name,string memory Colour,uint Status){\n        Product memory p = products[productId];\n        return (p.Owner, p.Id, p.Name, p.Colour, p.Status);\n    }\n\n    function getProductById1(string memory productId)public view returns (Product memory){\n        Product memory p = products[productId];\n        return p;\n    }\n\n    function getProductCounts() public view returns (uint) {\n        return ProductIdList.length;\n    }\n\n}\n",
  "sourcePath": "/home/mdabidkhan/ethereum/contracts/ProductContract.sol",
  "compiler": {
    "name": "solc",
    "version": "0.8.19+commit.7dd6d404.Emscripten.clang"
  },
  "schemaVersion": "3.4.13",
  "updatedAt": "2023-03-15T02:06:42.398Z",
  "networkType": "ethereum",
  "devdoc": {
    "kind": "dev",
    "methods": {},
    "version": 1
  },
  "userdoc": {
    "kind": "user",
    "methods": {},
    "version": 1
  }
}