{
  "contractName": "ProductContract",
  "abi": [
    {
      "anonymous": false,
      "inputs": [
        {
          "indexed": true,
          "internalType": "string",
          "name": "id",
          "type": "string"
        },
        {
          "indexed": true,
          "internalType": "address",
          "name": "newOwner",
          "type": "address"
        }
      ],
      "name": "ownerChanged",
      "type": "event"
    },
    {
      "anonymous": false,
      "inputs": [
        {
          "indexed": true,
          "internalType": "string",
          "name": "id",
          "type": "string"
        },
        {
          "indexed": true,
          "internalType": "string",
          "name": "name",
          "type": "string"
        },
        {
          "indexed": true,
          "internalType": "string",
          "name": "color",
          "type": "string"
        }
      ],
      "name": "productCreation",
      "type": "event"
    },
    {
      "inputs": [
        {
          "internalType": "string",
          "name": "id",
          "type": "string"
        },
        {
          "internalType": "string",
          "name": "name",
          "type": "string"
        },
        {
          "internalType": "string",
          "name": "color",
          "type": "string"
        }
      ],
      "name": "addProduct",
      "outputs": [],
      "stateMutability": "nonpayable",
      "type": "function"
    },
    {
      "inputs": [
        {
          "internalType": "string",
          "name": "id",
          "type": "string"
        },
        {
          "internalType": "address",
          "name": "to",
          "type": "address"
        }
      ],
      "name": "changeProductOwner",
      "outputs": [],
      "stateMutability": "nonpayable",
      "type": "function"
    },
    {
      "inputs": [
        {
          "internalType": "string",
          "name": "productId",
          "type": "string"
        }
      ],
      "name": "getProductById",
      "outputs": [
        {
          "components": [
            {
              "internalType": "address",
              "name": "Owner",
              "type": "address"
            },
            {
              "internalType": "string",
              "name": "Id",
              "type": "string"
            },
            {
              "internalType": "string",
              "name": "Name",
              "type": "string"
            },
            {
              "internalType": "string",
              "name": "Color",
              "type": "string"
            },
            {
              "internalType": "uint256",
              "name": "Status",
              "type": "uint256"
            }
          ],
          "internalType": "struct ProductContract.Product",
          "name": "product",
          "type": "tuple"
        }
      ],
      "stateMutability": "view",
      "type": "function",
      "constant": true
    },
    {
      "inputs": [],
      "name": "getAllProduct",
      "outputs": [
        {
          "components": [
            {
              "internalType": "address",
              "name": "Owner",
              "type": "address"
            },
            {
              "internalType": "string",
              "name": "Id",
              "type": "string"
            },
            {
              "internalType": "string",
              "name": "Name",
              "type": "string"
            },
            {
              "internalType": "string",
              "name": "Color",
              "type": "string"
            },
            {
              "internalType": "uint256",
              "name": "Status",
              "type": "uint256"
            }
          ],
          "internalType": "struct ProductContract.Product[]",
          "name": "",
          "type": "tuple[]"
        }
      ],
      "stateMutability": "view",
      "type": "function",
      "constant": true
    },
    {
      "inputs": [],
      "name": "getProductCounts",
      "outputs": [
        {
          "internalType": "uint256",
          "name": "",
          "type": "uint256"
        }
      ],
      "stateMutability": "view",
      "type": "function",
      "constant": true
    }
  ],
  "bytecode": "0x608060405234801561001057600080fd5b506114d7806100206000396000f3fe608060405234801561001057600080fd5b50600436106100575760003560e01c80630755742c1461005c5780630e34b00e146100785780632352d4aa14610094578063d055a75f146100c4578063d35e5d95146100e2575b600080fd5b61007660048036038101906100719190610b88565b610100565b005b610092600480360381019061008d9190610be4565b61026c565b005b6100ae60048036038101906100a99190610c8b565b610428565b6040516100bb9190610dff565b60405180910390f35b6100cc61067c565b6040516100d99190610f67565b60405180910390f35b6100ea61097f565b6040516100f79190610f98565b60405180910390f35b6001826040516101109190610fef565b908152602001604051809103902060000160009054906101000a900473ffffffffffffffffffffffffffffffffffffffff1673ffffffffffffffffffffffffffffffffffffffff163373ffffffffffffffffffffffffffffffffffffffff16146101af576040517f08c379a00000000000000000000000000000000000000000000000000000000081526004016101a690611063565b60405180910390fd5b806001836040516101c09190610fef565b908152602001604051809103902060000160006101000a81548173ffffffffffffffffffffffffffffffffffffffff021916908373ffffffffffffffffffffffffffffffffffffffff1602179055508073ffffffffffffffffffffffffffffffffffffffff16826040516102349190610fef565b60405180910390207fae1a03e1d76b8d1a62be7378518c0f5c9c0dd46555ed1643ffec9a06fb39808960405160405180910390a35050565b8260018460405161027d9190610fef565b9081526020016040518091039020600101908161029a919061128f565b50816001846040516102ac9190610fef565b908152602001604051809103902060020190816102c9919061128f565b50806001846040516102db9190610fef565b908152602001604051809103902060030190816102f8919061128f565b503360018460405161030a9190610fef565b908152602001604051809103902060000160006101000a81548173ffffffffffffffffffffffffffffffffffffffff021916908373ffffffffffffffffffffffffffffffffffffffff160217905550600060018460405161036b9190610fef565b9081526020016040518091039020600401819055506000839080600181540180825580915050600190039060005260206000200160009091909190915090816103b4919061128f565b50806040516103c39190610fef565b6040518091039020826040516103d99190610fef565b6040518091039020846040516103ef9190610fef565b60405180910390207fd37dd0ed6fb9ad93b91e71c304841033f3af3f9cb05dfdd354d91b1383d93cef60405160405180910390a4505050565b61043061098b565b60006001836040516104429190610fef565b90815260200160405180910390206040518060a00160405290816000820160009054906101000a900473ffffffffffffffffffffffffffffffffffffffff1673ffffffffffffffffffffffffffffffffffffffff1673ffffffffffffffffffffffffffffffffffffffff1681526020016001820180546104c1906110b2565b80601f01602080910402602001604051908101604052809291908181526020018280546104ed906110b2565b801561053a5780601f1061050f5761010080835404028352916020019161053a565b820191906000526020600020905b81548152906001019060200180831161051d57829003601f168201915b50505050508152602001600282018054610553906110b2565b80601f016020809104026020016040519081016040528092919081815260200182805461057f906110b2565b80156105cc5780601f106105a1576101008083540402835291602001916105cc565b820191906000526020600020905b8154815290600101906020018083116105af57829003601f168201915b505050505081526020016003820180546105e5906110b2565b80601f0160208091040260200160405190810160405280929190818152602001828054610611906110b2565b801561065e5780601f106106335761010080835404028352916020019161065e565b820191906000526020600020905b81548152906001019060200180831161064157829003601f168201915b50505050508152602001600482015481525050905080915050919050565b60606000808054905067ffffffffffffffff81111561069e5761069d6109ff565b5b6040519080825280602002602001820160405280156106d757816020015b6106c461098b565b8152602001906001900390816106bc5790505b50905060005b60008054905081101561097757600160008281548110610700576106ff611361565b5b906000526020600020016040516107179190611413565b90815260200160405180910390206040518060a00160405290816000820160009054906101000a900473ffffffffffffffffffffffffffffffffffffffff1673ffffffffffffffffffffffffffffffffffffffff1673ffffffffffffffffffffffffffffffffffffffff168152602001600182018054610796906110b2565b80601f01602080910402602001604051908101604052809291908181526020018280546107c2906110b2565b801561080f5780601f106107e45761010080835404028352916020019161080f565b820191906000526020600020905b8154815290600101906020018083116107f257829003601f168201915b50505050508152602001600282018054610828906110b2565b80601f0160208091040260200160405190810160405280929190818152602001828054610854906110b2565b80156108a15780601f10610876576101008083540402835291602001916108a1565b820191906000526020600020905b81548152906001019060200180831161088457829003601f168201915b505050505081526020016003820180546108ba906110b2565b80601f01602080910402602001604051908101604052809291908181526020018280546108e6906110b2565b80156109335780601f1061090857610100808354040283529160200191610933565b820191906000526020600020905b81548152906001019060200180831161091657829003601f168201915b5050505050815260200160048201548152505082828151811061095957610958611361565b5b6020026020010181905250808061096f90611459565b9150506106dd565b508091505090565b60008080549050905090565b6040518060a00160405280600073ffffffffffffffffffffffffffffffffffffffff168152602001606081526020016060815260200160608152602001600081525090565b6000604051905090565b600080fd5b600080fd5b600080fd5b600080fd5b6000601f19601f8301169050919050565b7f4e487b7100000000000000000000000000000000000000000000000000000000600052604160045260246000fd5b610a37826109ee565b810181811067ffffffffffffffff82111715610a5657610a556109ff565b5b80604052505050565b6000610a696109d0565b9050610a758282610a2e565b919050565b600067ffffffffffffffff821115610a9557610a946109ff565b5b610a9e826109ee565b9050602081019050919050565b82818337600083830152505050565b6000610acd610ac884610a7a565b610a5f565b905082815260208101848484011115610ae957610ae86109e9565b5b610af4848285610aab565b509392505050565b600082601f830112610b1157610b106109e4565b5b8135610b21848260208601610aba565b91505092915050565b600073ffffffffffffffffffffffffffffffffffffffff82169050919050565b6000610b5582610b2a565b9050919050565b610b6581610b4a565b8114610b7057600080fd5b50565b600081359050610b8281610b5c565b92915050565b60008060408385031215610b9f57610b9e6109da565b5b600083013567ffffffffffffffff811115610bbd57610bbc6109df565b5b610bc985828601610afc565b9250506020610bda85828601610b73565b9150509250929050565b600080600060608486031215610bfd57610bfc6109da565b5b600084013567ffffffffffffffff811115610c1b57610c1a6109df565b5b610c2786828701610afc565b935050602084013567ffffffffffffffff811115610c4857610c476109df565b5b610c5486828701610afc565b925050604084013567ffffffffffffffff811115610c7557610c746109df565b5b610c8186828701610afc565b9150509250925092565b600060208284031215610ca157610ca06109da565b5b600082013567ffffffffffffffff811115610cbf57610cbe6109df565b5b610ccb84828501610afc565b91505092915050565b610cdd81610b4a565b82525050565b600081519050919050565b600082825260208201905092915050565b60005b83811015610d1d578082015181840152602081019050610d02565b60008484015250505050565b6000610d3482610ce3565b610d3e8185610cee565b9350610d4e818560208601610cff565b610d57816109ee565b840191505092915050565b6000819050919050565b610d7581610d62565b82525050565b600060a083016000830151610d936000860182610cd4565b5060208301518482036020860152610dab8282610d29565b91505060408301518482036040860152610dc58282610d29565b91505060608301518482036060860152610ddf8282610d29565b9150506080830151610df46080860182610d6c565b508091505092915050565b60006020820190508181036000830152610e198184610d7b565b905092915050565b600081519050919050565b600082825260208201905092915050565b6000819050602082019050919050565b600060a083016000830151610e656000860182610cd4565b5060208301518482036020860152610e7d8282610d29565b91505060408301518482036040860152610e978282610d29565b91505060608301518482036060860152610eb18282610d29565b9150506080830151610ec66080860182610d6c565b508091505092915050565b6000610edd8383610e4d565b905092915050565b6000602082019050919050565b6000610efd82610e21565b610f078185610e2c565b935083602082028501610f1985610e3d565b8060005b85811015610f555784840389528151610f368582610ed1565b9450610f4183610ee5565b925060208a01995050600181019050610f1d565b50829750879550505050505092915050565b60006020820190508181036000830152610f818184610ef2565b905092915050565b610f9281610d62565b82525050565b6000602082019050610fad6000830184610f89565b92915050565b600081905092915050565b6000610fc982610ce3565b610fd38185610fb3565b9350610fe3818560208601610cff565b80840191505092915050565b6000610ffb8284610fbe565b915081905092915050565b600082825260208201905092915050565b7f4f6e6c79206f776e65722063616e206368616e67652074686520737461747573600082015250565b600061104d602083611006565b915061105882611017565b602082019050919050565b6000602082019050818103600083015261107c81611040565b9050919050565b7f4e487b7100000000000000000000000000000000000000000000000000000000600052602260045260246000fd5b600060028204905060018216806110ca57607f821691505b6020821081036110dd576110dc611083565b5b50919050565b60008190508160005260206000209050919050565b60006020601f8301049050919050565b600082821b905092915050565b6000600883026111457fffffffffffffffffffffffffffffffffffffffffffffffffffffffffffffffff82611108565b61114f8683611108565b95508019841693508086168417925050509392505050565b6000819050919050565b600061118c61118761118284610d62565b611167565b610d62565b9050919050565b6000819050919050565b6111a683611171565b6111ba6111b282611193565b848454611115565b825550505050565b600090565b6111cf6111c2565b6111da81848461119d565b505050565b5b818110156111fe576111f36000826111c7565b6001810190506111e0565b5050565b601f82111561124357611214816110e3565b61121d846110f8565b8101602085101561122c578190505b611240611238856110f8565b8301826111df565b50505b505050565b600082821c905092915050565b600061126660001984600802611248565b1980831691505092915050565b600061127f8383611255565b9150826002028217905092915050565b61129882610ce3565b67ffffffffffffffff8111156112b1576112b06109ff565b5b6112bb82546110b2565b6112c6828285611202565b600060209050601f8311600181146112f957600084156112e7578287015190505b6112f18582611273565b865550611359565b601f198416611307866110e3565b60005b8281101561132f5784890151825560018201915060208501945060208101905061130a565b8683101561134c5784890151611348601f891682611255565b8355505b6001600288020188555050505b505050505050565b7f4e487b7100000000000000000000000000000000000000000000000000000000600052603260045260246000fd5b6000815461139d816110b2565b6113a78186610fb3565b945060018216600081146113c257600181146113d75761140a565b60ff198316865281151582028601935061140a565b6113e0856110e3565b60005b83811015611402578154818901526001820191506020810190506113e3565b838801955050505b50505092915050565b600061141f8284611390565b915081905092915050565b7f4e487b7100000000000000000000000000000000000000000000000000000000600052601160045260246000fd5b600061146482610d62565b91507fffffffffffffffffffffffffffffffffffffffffffffffffffffffffffffffff82036114965761149561142a565b5b60018201905091905056fea2646970667358221220fae26a62f9bb794610cc8848bc6e2e6bca9ece807d5d8c8c1850d9528380636064736f6c63430008130033",
  "immutableReferences": {},
  "source": "// SPDX-License-Identifier: UNLICENSED\npragma solidity ^0.8.0;\n\ncontract ProductContract {\n\n    struct Product {\n        address Owner;\n        string Id;\n        string Name;\n        string Color;\n        uint Status;\n    }\n\n    string[] ProductIdList;\n    mapping(string => Product) products;\n\n    event productCreation(string indexed id, string indexed name,string indexed color);\n    event ownerChanged(string indexed id, address indexed newOwner);\n\n    function addProduct(string memory id,string memory name,string memory color) public {\n        products[id].Id = id;\n        products[id].Name = name;\n        products[id].Color = color;\n        products[id].Owner = msg.sender;\n        products[id].Status = 0;\n\n        ProductIdList.push(id);\n        emit productCreation(id, name, color);\n    }\n\n    function changeProductOwner(string memory id, address to) public {\n        require(\n            msg.sender == products[id].Owner,\n            \"Only owner can change the status\"\n        );\n        products[id].Owner = to;\n        emit ownerChanged(id, to);\n    }\n\n    function getProductById(string memory productId)public view returns (Product memory product){\n        Product memory p = products[productId];\n        return (p);\n    }\n\n    function getAllProduct() public view returns (Product[] memory){\n        Product[] memory prods = new Product[](ProductIdList.length);\n        for (uint i = 0; i <ProductIdList.length ; i++) {\n            prods[i] = products[ProductIdList[i]];\n        }\n        return prods;\n    }   \n\n    function getProductCounts() public view returns (uint) {\n        return ProductIdList.length;\n    }\n}\n",
  "sourcePath": "/home/mdabidkhan/eth-pms/contracts/ProductContract.sol",
  "compiler": {
    "name": "solc",
    "version": "0.8.19+commit.7dd6d404.Emscripten.clang"
  },
  "schemaVersion": "3.4.13",
  "updatedAt": "2023-03-16T12:42:12.916Z",
  "networkType": "ethereum",
  "devdoc": {
    "kind": "dev",
    "methods": {},
    "version": 1
  },
  "userdoc": {
    "kind": "user",
    "methods": {},
    "version": 1
  }
}