{
  "contractName": "ProductContract",
  "abi": [
    {
      "anonymous": false,
      "inputs": [
        {
          "indexed": true,
          "internalType": "string",
          "name": "id",
          "type": "string"
        },
        {
          "indexed": true,
          "internalType": "address",
          "name": "newOwner",
          "type": "address"
        }
      ],
      "name": "ownerChanged",
      "type": "event"
    },
    {
      "anonymous": false,
      "inputs": [
        {
          "indexed": true,
          "internalType": "string",
          "name": "id",
          "type": "string"
        },
        {
          "indexed": true,
          "internalType": "string",
          "name": "name",
          "type": "string"
        },
        {
          "indexed": true,
          "internalType": "string",
          "name": "colour",
          "type": "string"
        }
      ],
      "name": "productCreation",
      "type": "event"
    },
    {
      "inputs": [],
      "name": "myName",
      "outputs": [
        {
          "internalType": "string",
          "name": "",
          "type": "string"
        }
      ],
      "stateMutability": "view",
      "type": "function",
      "constant": true
    },
    {
      "inputs": [],
      "name": "pr",
      "outputs": [
        {
          "internalType": "address",
          "name": "Owner",
          "type": "address"
        },
        {
          "internalType": "string",
          "name": "Id",
          "type": "string"
        },
        {
          "internalType": "string",
          "name": "Name",
          "type": "string"
        },
        {
          "internalType": "string",
          "name": "Colour",
          "type": "string"
        },
        {
          "internalType": "uint256",
          "name": "Status",
          "type": "uint256"
        }
      ],
      "stateMutability": "view",
      "type": "function",
      "constant": true
    },
    {
      "inputs": [],
      "name": "getName",
      "outputs": [
        {
          "internalType": "string",
          "name": "Name",
          "type": "string"
        }
      ],
      "stateMutability": "view",
      "type": "function",
      "constant": true
    },
    {
      "inputs": [
        {
          "internalType": "string",
          "name": "id",
          "type": "string"
        },
        {
          "internalType": "string",
          "name": "name",
          "type": "string"
        },
        {
          "internalType": "string",
          "name": "colour",
          "type": "string"
        }
      ],
      "name": "addProduct",
      "outputs": [],
      "stateMutability": "nonpayable",
      "type": "function"
    },
    {
      "inputs": [
        {
          "internalType": "string",
          "name": "id",
          "type": "string"
        },
        {
          "internalType": "address",
          "name": "to",
          "type": "address"
        }
      ],
      "name": "changeProductOwner",
      "outputs": [],
      "stateMutability": "nonpayable",
      "type": "function"
    },
    {
      "inputs": [
        {
          "internalType": "string",
          "name": "productId",
          "type": "string"
        }
      ],
      "name": "getProductById",
      "outputs": [
        {
          "internalType": "address",
          "name": "Owner",
          "type": "address"
        },
        {
          "internalType": "string",
          "name": "Id",
          "type": "string"
        },
        {
          "internalType": "string",
          "name": "Name",
          "type": "string"
        },
        {
          "internalType": "string",
          "name": "Colour",
          "type": "string"
        },
        {
          "internalType": "uint256",
          "name": "Status",
          "type": "uint256"
        }
      ],
      "stateMutability": "view",
      "type": "function",
      "constant": true
    },
    {
      "inputs": [
        {
          "internalType": "string",
          "name": "productId",
          "type": "string"
        }
      ],
      "name": "getProductById1",
      "outputs": [
        {
          "components": [
            {
              "internalType": "address",
              "name": "Owner",
              "type": "address"
            },
            {
              "internalType": "string",
              "name": "Id",
              "type": "string"
            },
            {
              "internalType": "string",
              "name": "Name",
              "type": "string"
            },
            {
              "internalType": "string",
              "name": "Colour",
              "type": "string"
            },
            {
              "internalType": "uint256",
              "name": "Status",
              "type": "uint256"
            }
          ],
          "internalType": "struct ProductContract.Product",
          "name": "",
          "type": "tuple"
        }
      ],
      "stateMutability": "view",
      "type": "function",
      "constant": true
    },
    {
      "inputs": [],
      "name": "getProductCounts",
      "outputs": [
        {
          "internalType": "uint256",
          "name": "",
          "type": "uint256"
        }
      ],
      "stateMutability": "view",
      "type": "function",
      "constant": true
    }
  ],
  "bytecode": "0x60806040526040518060400160405280600c81526020017f4d442041424944204b48414e0000000000000000000000000000000000000000815250600090816200004a9190620002d9565b503480156200005857600080fd5b50620003c0565b600081519050919050565b7f4e487b7100000000000000000000000000000000000000000000000000000000600052604160045260246000fd5b7f4e487b7100000000000000000000000000000000000000000000000000000000600052602260045260246000fd5b60006002820490506001821680620000e157607f821691505b602082108103620000f757620000f662000099565b5b50919050565b60008190508160005260206000209050919050565b60006020601f8301049050919050565b600082821b905092915050565b600060088302620001617fffffffffffffffffffffffffffffffffffffffffffffffffffffffffffffffff8262000122565b6200016d868362000122565b95508019841693508086168417925050509392505050565b6000819050919050565b6000819050919050565b6000620001ba620001b4620001ae8462000185565b6200018f565b62000185565b9050919050565b6000819050919050565b620001d68362000199565b620001ee620001e582620001c1565b8484546200012f565b825550505050565b600090565b62000205620001f6565b62000212818484620001cb565b505050565b5b818110156200023a576200022e600082620001fb565b60018101905062000218565b5050565b601f82111562000289576200025381620000fd565b6200025e8462000112565b810160208510156200026e578190505b620002866200027d8562000112565b83018262000217565b50505b505050565b600082821c905092915050565b6000620002ae600019846008026200028e565b1980831691505092915050565b6000620002c983836200029b565b9150826002028217905092915050565b620002e4826200005f565b67ffffffffffffffff8111156200030057620002ff6200006a565b5b6200030c8254620000c8565b620003198282856200023e565b600060209050601f8311600181146200035157600084156200033c578287015190505b620003488582620002bb565b865550620003b8565b601f1984166200036186620000fd565b60005b828110156200038b5784890151825560018201915060208501945060208101905062000364565b86831015620003ab5784890151620003a7601f8916826200029b565b8355505b6001600288020188555050505b505050505050565b61161880620003d06000396000f3fe608060405234801561001057600080fd5b50600436106100885760003560e01c80632352d4aa1161005b5780632352d4aa14610105578063cbdcaf4714610139578063d35e5d9514610169578063fae2dd4b1461018757610088565b80630755742c1461008d5780630e34b00e146100a95780631509c42a146100c557806317d7de7c146100e7575b600080fd5b6100a760048036038101906100a29190610e9f565b6101a5565b005b6100c360048036038101906100be9190610efb565b610311565b005b6100cd6104cd565b6040516100de959493929190611049565b60405180910390f35b6100ef6106a9565b6040516100fc91906110b1565b60405180910390f35b61011f600480360381019061011a91906110d3565b61073b565b604051610130959493929190611049565b60405180910390f35b610153600480360381019061014e91906110d3565b6109b3565b6040516101609190611208565b60405180910390f35b610171610c07565b60405161017e919061122a565b60405180910390f35b61018f610c14565b60405161019c91906110b1565b60405180910390f35b6007826040516101b59190611281565b908152602001604051809103902060000160009054906101000a900473ffffffffffffffffffffffffffffffffffffffff1673ffffffffffffffffffffffffffffffffffffffff163373ffffffffffffffffffffffffffffffffffffffff1614610254576040517f08c379a000000000000000000000000000000000000000000000000000000000815260040161024b906112e4565b60405180910390fd5b806007836040516102659190611281565b908152602001604051809103902060000160006101000a81548173ffffffffffffffffffffffffffffffffffffffff021916908373ffffffffffffffffffffffffffffffffffffffff1602179055508073ffffffffffffffffffffffffffffffffffffffff16826040516102d99190611281565b60405180910390207fae1a03e1d76b8d1a62be7378518c0f5c9c0dd46555ed1643ffec9a06fb39808960405160405180910390a35050565b826007846040516103229190611281565b9081526020016040518091039020600101908161033f9190611510565b50816007846040516103519190611281565b9081526020016040518091039020600201908161036e9190611510565b50806007846040516103809190611281565b9081526020016040518091039020600301908161039d9190611510565b50336007846040516103af9190611281565b908152602001604051809103902060000160006101000a81548173ffffffffffffffffffffffffffffffffffffffff021916908373ffffffffffffffffffffffffffffffffffffffff16021790555060006007846040516104109190611281565b9081526020016040518091039020600401819055506006839080600181540180825580915050600190039060005260206000200160009091909190915090816104599190611510565b50806040516104689190611281565b60405180910390208260405161047e9190611281565b6040518091039020846040516104949190611281565b60405180910390207fd37dd0ed6fb9ad93b91e71c304841033f3af3f9cb05dfdd354d91b1383d93cef60405160405180910390a4505050565b60018060000160009054906101000a900473ffffffffffffffffffffffffffffffffffffffff169080600101805461050490611333565b80601f016020809104026020016040519081016040528092919081815260200182805461053090611333565b801561057d5780601f106105525761010080835404028352916020019161057d565b820191906000526020600020905b81548152906001019060200180831161056057829003601f168201915b50505050509080600201805461059290611333565b80601f01602080910402602001604051908101604052809291908181526020018280546105be90611333565b801561060b5780601f106105e05761010080835404028352916020019161060b565b820191906000526020600020905b8154815290600101906020018083116105ee57829003601f168201915b50505050509080600301805461062090611333565b80601f016020809104026020016040519081016040528092919081815260200182805461064c90611333565b80156106995780601f1061066e57610100808354040283529160200191610699565b820191906000526020600020905b81548152906001019060200180831161067c57829003601f168201915b5050505050908060040154905085565b6060600080546106b890611333565b80601f01602080910402602001604051908101604052809291908181526020018280546106e490611333565b80156107315780601f1061070657610100808354040283529160200191610731565b820191906000526020600020905b81548152906001019060200180831161071457829003601f168201915b5050505050905090565b600060608060606000806007876040516107559190611281565b90815260200160405180910390206040518060a00160405290816000820160009054906101000a900473ffffffffffffffffffffffffffffffffffffffff1673ffffffffffffffffffffffffffffffffffffffff1673ffffffffffffffffffffffffffffffffffffffff1681526020016001820180546107d490611333565b80601f016020809104026020016040519081016040528092919081815260200182805461080090611333565b801561084d5780601f106108225761010080835404028352916020019161084d565b820191906000526020600020905b81548152906001019060200180831161083057829003601f168201915b5050505050815260200160028201805461086690611333565b80601f016020809104026020016040519081016040528092919081815260200182805461089290611333565b80156108df5780601f106108b4576101008083540402835291602001916108df565b820191906000526020600020905b8154815290600101906020018083116108c257829003601f168201915b505050505081526020016003820180546108f890611333565b80601f016020809104026020016040519081016040528092919081815260200182805461092490611333565b80156109715780601f1061094657610100808354040283529160200191610971565b820191906000526020600020905b81548152906001019060200180831161095457829003601f168201915b50505050508152602001600482015481525050905080600001518160200151826040015183606001518460800151955095509550955095505091939590929450565b6109bb610ca2565b60006007836040516109cd9190611281565b90815260200160405180910390206040518060a00160405290816000820160009054906101000a900473ffffffffffffffffffffffffffffffffffffffff1673ffffffffffffffffffffffffffffffffffffffff1673ffffffffffffffffffffffffffffffffffffffff168152602001600182018054610a4c90611333565b80601f0160208091040260200160405190810160405280929190818152602001828054610a7890611333565b8015610ac55780601f10610a9a57610100808354040283529160200191610ac5565b820191906000526020600020905b815481529060010190602001808311610aa857829003601f168201915b50505050508152602001600282018054610ade90611333565b80601f0160208091040260200160405190810160405280929190818152602001828054610b0a90611333565b8015610b575780601f10610b2c57610100808354040283529160200191610b57565b820191906000526020600020905b815481529060010190602001808311610b3a57829003601f168201915b50505050508152602001600382018054610b7090611333565b80601f0160208091040260200160405190810160405280929190818152602001828054610b9c90611333565b8015610be95780601f10610bbe57610100808354040283529160200191610be9565b820191906000526020600020905b815481529060010190602001808311610bcc57829003601f168201915b50505050508152602001600482015481525050905080915050919050565b6000600680549050905090565b60008054610c2190611333565b80601f0160208091040260200160405190810160405280929190818152602001828054610c4d90611333565b8015610c9a5780601f10610c6f57610100808354040283529160200191610c9a565b820191906000526020600020905b815481529060010190602001808311610c7d57829003601f168201915b505050505081565b6040518060a00160405280600073ffffffffffffffffffffffffffffffffffffffff168152602001606081526020016060815260200160608152602001600081525090565b6000604051905090565b600080fd5b600080fd5b600080fd5b600080fd5b6000601f19601f8301169050919050565b7f4e487b7100000000000000000000000000000000000000000000000000000000600052604160045260246000fd5b610d4e82610d05565b810181811067ffffffffffffffff82111715610d6d57610d6c610d16565b5b80604052505050565b6000610d80610ce7565b9050610d8c8282610d45565b919050565b600067ffffffffffffffff821115610dac57610dab610d16565b5b610db582610d05565b9050602081019050919050565b82818337600083830152505050565b6000610de4610ddf84610d91565b610d76565b905082815260208101848484011115610e0057610dff610d00565b5b610e0b848285610dc2565b509392505050565b600082601f830112610e2857610e27610cfb565b5b8135610e38848260208601610dd1565b91505092915050565b600073ffffffffffffffffffffffffffffffffffffffff82169050919050565b6000610e6c82610e41565b9050919050565b610e7c81610e61565b8114610e8757600080fd5b50565b600081359050610e9981610e73565b92915050565b60008060408385031215610eb657610eb5610cf1565b5b600083013567ffffffffffffffff811115610ed457610ed3610cf6565b5b610ee085828601610e13565b9250506020610ef185828601610e8a565b9150509250929050565b600080600060608486031215610f1457610f13610cf1565b5b600084013567ffffffffffffffff811115610f3257610f31610cf6565b5b610f3e86828701610e13565b935050602084013567ffffffffffffffff811115610f5f57610f5e610cf6565b5b610f6b86828701610e13565b925050604084013567ffffffffffffffff811115610f8c57610f8b610cf6565b5b610f9886828701610e13565b9150509250925092565b610fab81610e61565b82525050565b600081519050919050565b600082825260208201905092915050565b60005b83811015610feb578082015181840152602081019050610fd0565b60008484015250505050565b600061100282610fb1565b61100c8185610fbc565b935061101c818560208601610fcd565b61102581610d05565b840191505092915050565b6000819050919050565b61104381611030565b82525050565b600060a08201905061105e6000830188610fa2565b81810360208301526110708187610ff7565b905081810360408301526110848186610ff7565b905081810360608301526110988185610ff7565b90506110a7608083018461103a565b9695505050505050565b600060208201905081810360008301526110cb8184610ff7565b905092915050565b6000602082840312156110e9576110e8610cf1565b5b600082013567ffffffffffffffff81111561110757611106610cf6565b5b61111384828501610e13565b91505092915050565b61112581610e61565b82525050565b600082825260208201905092915050565b600061114782610fb1565b611151818561112b565b9350611161818560208601610fcd565b61116a81610d05565b840191505092915050565b61117e81611030565b82525050565b600060a08301600083015161119c600086018261111c565b50602083015184820360208601526111b4828261113c565b915050604083015184820360408601526111ce828261113c565b915050606083015184820360608601526111e8828261113c565b91505060808301516111fd6080860182611175565b508091505092915050565b600060208201905081810360008301526112228184611184565b905092915050565b600060208201905061123f600083018461103a565b92915050565b600081905092915050565b600061125b82610fb1565b6112658185611245565b9350611275818560208601610fcd565b80840191505092915050565b600061128d8284611250565b915081905092915050565b7f4f6e6c79206f776e65722063616e206368616e67652074686520737461747573600082015250565b60006112ce602083610fbc565b91506112d982611298565b602082019050919050565b600060208201905081810360008301526112fd816112c1565b9050919050565b7f4e487b7100000000000000000000000000000000000000000000000000000000600052602260045260246000fd5b6000600282049050600182168061134b57607f821691505b60208210810361135e5761135d611304565b5b50919050565b60008190508160005260206000209050919050565b60006020601f8301049050919050565b600082821b905092915050565b6000600883026113c67fffffffffffffffffffffffffffffffffffffffffffffffffffffffffffffffff82611389565b6113d08683611389565b95508019841693508086168417925050509392505050565b6000819050919050565b600061140d61140861140384611030565b6113e8565b611030565b9050919050565b6000819050919050565b611427836113f2565b61143b61143382611414565b848454611396565b825550505050565b600090565b611450611443565b61145b81848461141e565b505050565b5b8181101561147f57611474600082611448565b600181019050611461565b5050565b601f8211156114c45761149581611364565b61149e84611379565b810160208510156114ad578190505b6114c16114b985611379565b830182611460565b50505b505050565b600082821c905092915050565b60006114e7600019846008026114c9565b1980831691505092915050565b600061150083836114d6565b9150826002028217905092915050565b61151982610fb1565b67ffffffffffffffff81111561153257611531610d16565b5b61153c8254611333565b611547828285611483565b600060209050601f83116001811461157a5760008415611568578287015190505b61157285826114f4565b8655506115da565b601f19841661158886611364565b60005b828110156115b05784890151825560018201915060208501945060208101905061158b565b868310156115cd57848901516115c9601f8916826114d6565b8355505b6001600288020188555050505b50505050505056fea26469706673582212201ae548e27ff7d984c32d77cda3927fc1dc103ea7343c4d53d5c23a1ccd0ed9d164736f6c63430008130033",
  "immutableReferences": {},
  "source": "// SPDX-License-Identifier: UNLICENSED\npragma solidity ^0.8.0;\n\ncontract ProductContract {\n    string public myName = \"MD ABID KHAN\";\n\n    function getName() public view returns (string memory Name) {\n        return myName;\n    }\n\n    struct Product {\n        address Owner;\n        string Id;\n        string Name;\n        string Colour;\n        uint Status;\n    }\n    Product public pr;\n\n    string[] ProductIdList;\n    mapping(string => Product) products;\n\n    event productCreation(\n        string indexed id,\n        string indexed name,\n        string indexed colour\n    );\n    event ownerChanged(string indexed id, address indexed newOwner);\n\n    function addProduct(\n        string memory id,\n        string memory name,\n        string memory colour\n    ) public {\n        products[id].Id = id;\n        products[id].Name = name;\n        products[id].Colour = colour;\n        products[id].Owner = msg.sender;\n        products[id].Status = 0;\n\n        ProductIdList.push(id);\n        emit productCreation(id, name, colour);\n    }\n    \n    // function values() public{\n    //     Product memory pr1= Product(msg.sender,\"idgiven\",\"abid\",\"yellow\",0);\n    //     pr=pr1;\n\n    // }\n\n    function changeProductOwner(string memory id, address to) public {\n        require(\n            msg.sender == products[id].Owner,\n            \"Only owner can change the status\"\n        );\n        products[id].Owner = to;\n        emit ownerChanged(id, to);\n    }\n\n    function getProductById(\n        string memory productId\n    )\n        public\n        view\n        returns (\n            address Owner,\n            string memory Id,\n            string memory Name,\n            string memory Colour,\n            uint Status\n        )\n    {\n        Product memory p = products[productId];\n        return (p.Owner, p.Id, p.Name, p.Colour, p.Status);\n    }\n\n    function getProductById1(\n        string memory productId\n    ) public view returns (Product memory) {\n        Product memory p = products[productId];\n        return p;\n    }\n\n    function getProductCounts() public view returns (uint) {\n        return ProductIdList.length;\n    }\n}\n",
  "sourcePath": "/home/mdabidkhan/eth-pms/contracts/ProductContract.sol",
  "compiler": {
    "name": "solc",
    "version": "0.8.19+commit.7dd6d404.Emscripten.clang"
  },
  "schemaVersion": "3.4.13",
  "updatedAt": "2023-03-15T10:13:16.118Z",
  "networkType": "ethereum",
  "devdoc": {
    "kind": "dev",
    "methods": {},
    "version": 1
  },
  "userdoc": {
    "kind": "user",
    "methods": {},
    "version": 1
  }
}